{
  "contractName": "MemberApp",
  "abi": [
    {
      "inputs": [
        {
          "internalType": "bytes16",
          "name": "publicKey",
          "type": "bytes16"
        },
        {
          "internalType": "bytes32[4]",
          "name": "encAddress",
          "type": "bytes32[4]"
        },
        {
          "internalType": "bytes16",
          "name": "encSignature",
          "type": "bytes16"
        },
        {
          "internalType": "address",
          "name": "memberAppOwner",
          "type": "address"
        }
      ],
      "stateMutability": "nonpayable",
      "type": "constructor"
    },
    {
      "inputs": [],
      "name": "getPublicKey",
      "outputs": [
        {
          "internalType": "bytes16",
          "name": "",
          "type": "bytes16"
        }
      ],
      "stateMutability": "view",
      "type": "function"
    },
    {
      "inputs": [],
      "name": "getEncAddress",
      "outputs": [
        {
          "internalType": "bytes32[32]",
          "name": "",
          "type": "bytes32[32]"
        }
      ],
      "stateMutability": "view",
      "type": "function"
    },
    {
      "inputs": [],
      "name": "getEncSignature",
      "outputs": [
        {
          "internalType": "bytes16",
          "name": "",
          "type": "bytes16"
        }
      ],
      "stateMutability": "view",
      "type": "function"
    },
    {
      "inputs": [],
      "name": "getOwner",
      "outputs": [
        {
          "internalType": "address",
          "name": "",
          "type": "address"
        }
      ],
      "stateMutability": "view",
      "type": "function"
    },
    {
      "inputs": [],
      "name": "getStatus",
      "outputs": [
        {
          "internalType": "enum memberStatus",
          "name": "",
          "type": "uint8"
        }
      ],
      "stateMutability": "view",
      "type": "function"
    },
    {
      "inputs": [],
      "name": "getSuperApp",
      "outputs": [
        {
          "internalType": "address",
          "name": "",
          "type": "address"
        }
      ],
      "stateMutability": "view",
      "type": "function"
    },
    {
      "inputs": [],
      "name": "deactivate",
      "outputs": [],
      "stateMutability": "nonpayable",
      "type": "function"
    },
    {
      "inputs": [
        {
          "internalType": "address",
          "name": "app",
          "type": "address"
        }
      ],
      "name": "givePermission",
      "outputs": [],
      "stateMutability": "nonpayable",
      "type": "function"
    },
    {
      "inputs": [
        {
          "internalType": "address",
          "name": "app",
          "type": "address"
        }
      ],
      "name": "revokePermission",
      "outputs": [],
      "stateMutability": "nonpayable",
      "type": "function"
    },
    {
      "inputs": [
        {
          "internalType": "address",
          "name": "user",
          "type": "address"
        },
        {
          "internalType": "address",
          "name": "app",
          "type": "address"
        }
      ],
      "name": "getPermission",
      "outputs": [
        {
          "internalType": "bool",
          "name": "",
          "type": "bool"
        }
      ],
      "stateMutability": "view",
      "type": "function"
    }
  ],
  "bytecode": "0x608060405234801561001057600080fd5b5060405161090d38038061090d833981810160405260e081101561003357600080fd5b81019080805190602001909291909190826080018051906020019092919080519060200190929190505050836000800160006101000a8154816fffffffffffffffffffffffffffffffff021916908360801c021790555082600060010190600461009e929190610184565b5081600060210160006101000a8154816fffffffffffffffffffffffffffffffff021916908360801c021790555080600060220160006101000a81548173ffffffffffffffffffffffffffffffffffffffff021916908373ffffffffffffffffffffffffffffffffffffffff1602179055506001600060220160146101000a81548160ff0219169083600281111561013257fe5b021790555033600060230160006101000a81548173ffffffffffffffffffffffffffffffffffffffff021916908373ffffffffffffffffffffffffffffffffffffffff160217905550505050506101e1565b82602081019282156101b3579160200282015b828111156101b2578251825591602001919060010190610197565b5b5090506101c091906101c4565b5090565b5b808211156101dd5760008160009055506001016101c5565b5090565b61071d806101f06000396000f3fe608060405234801561001057600080fd5b506004361061009e5760003560e01c8063893d20e811610066578063893d20e81461017f578063910185dd146101b3578063a3bf5b9a1461022d578063f8bf6ced14610271578063ffa34a56146102a25761009e565b8063106a9a5b146100a35780632e334452146100d75780633d391f70146101085780634e69d5601461014c57806351b42b0014610175575b600080fd5b6100ab6102e7565b604051808273ffffffffffffffffffffffffffffffffffffffff16815260200191505060405180910390f35b6100df610313565b60405180826fffffffffffffffffffffffffffffffff1916815260200191505060405180910390f35b61014a6004803603602081101561011e57600080fd5b81019080803573ffffffffffffffffffffffffffffffffffffffff16906020019092919050505061032c565b005b6101546103c4565b6040518082600281111561016457fe5b815260200191505060405180910390f35b61017d6103dd565b005b610187610491565b604051808273ffffffffffffffffffffffffffffffffffffffff16815260200191505060405180910390f35b610215600480360360408110156101c957600080fd5b81019080803573ffffffffffffffffffffffffffffffffffffffff169060200190929190803573ffffffffffffffffffffffffffffffffffffffff1690602001909291905050506104bd565b60405180821515815260200191505060405180910390f35b61026f6004803603602081101561024357600080fd5b81019080803573ffffffffffffffffffffffffffffffffffffffff169060200190929190505050610551565b005b6102796105e9565b60405180826fffffffffffffffffffffffffffffffff1916815260200191505060405180910390f35b6102aa610602565b60405180826020800280838360005b838110156102d45780820151818401526020810190506102b9565b5050505090500191505060405180910390f35b60008060230160009054906101000a900473ffffffffffffffffffffffffffffffffffffffff16905090565b60008060000160009054906101000a900460801b905090565b6001602460003373ffffffffffffffffffffffffffffffffffffffff1673ffffffffffffffffffffffffffffffffffffffff16815260200190815260200160002060008373ffffffffffffffffffffffffffffffffffffffff1673ffffffffffffffffffffffffffffffffffffffff16815260200190815260200160002060006101000a81548160ff02191690831515021790555050565b60008060220160149054906101000a900460ff16905090565b6103e56102e7565b73ffffffffffffffffffffffffffffffffffffffff163373ffffffffffffffffffffffffffffffffffffffff1614610468576040517f08c379a00000000000000000000000000000000000000000000000000000000081526004018080602001828103825260748152602001806106746074913960800191505060405180910390fd5b6002600060220160146101000a81548160ff0219169083600281111561048a57fe5b0217905550565b60008060220160009054906101000a900473ffffffffffffffffffffffffffffffffffffffff16905090565b6000602460008473ffffffffffffffffffffffffffffffffffffffff1673ffffffffffffffffffffffffffffffffffffffff16815260200190815260200160002060008373ffffffffffffffffffffffffffffffffffffffff1673ffffffffffffffffffffffffffffffffffffffff16815260200190815260200160002060009054906101000a900460ff16905092915050565b6000602460003373ffffffffffffffffffffffffffffffffffffffff1673ffffffffffffffffffffffffffffffffffffffff16815260200190815260200160002060008373ffffffffffffffffffffffffffffffffffffffff1673ffffffffffffffffffffffffffffffffffffffff16815260200190815260200160002060006101000a81548160ff02191690831515021790555050565b60008060210160009054906101000a900460801b905090565b61060a610650565b6000600101602080602002604051908101604052809291908260208015610646576020028201915b815481526020019060010190808311610632575b5050505050905090565b60405180610400016040528060209060208202803683378082019150509050509056fe43616c6c207468652073757065722061707020746f20646561637469766174652074686973206d656d626572206170702e20496620796f7520617265206e6f7420746865206f776e6572206f6620746869732061707020796f752077696c6c206e6f742062652061626c6520746f20646f20736fa264697066735822122079b39644a777d46fc5aafbbd30458ea60f2a5bfeab28bca6f6a7c14d95e8986064736f6c63430007000033",
  "immutableReferences": {},
  "source": "// SPDX-License-Identifier: MIT\npragma solidity ^0.7.0;\n\n/*************************\n Global\n**************************/\nenum memberStatus { NotSet, Active, Inactive }\nstruct memberApp\n{\n\tbytes16 publicKey;\n\tbytes32 [32] encAddress; //Bytes32 is more efficient and cheap than trings because they dont carry the UTF-8 enconding\n\tbytes16 encSignature;\n\t// address memberAppAddress;\n\taddress memberAppOwner; //When creating a new member app, that's the caller address\n\tmemberStatus status;\n\taddress superAppAddress; //Superapp this member belongs to\n}\n\ncontract MemberApp\n{\n\tmemberApp private _memberapp;\n\n\t//Thats the lost of users permissions\n\t//Please read the Permissions section above\n\t//Basically we map the address of an user to the address of an app and use a bool to set or unset the permissions\n\tmapping (address => mapping (address => bool)) usersPermissions;\n\n\t/*************************\n\t Constructor\n\t**************************/\n\t//OBS.: necessary to add the storage location for the bytes32 array\n\t//Used memory, cause it is volatile and cheap\n\tconstructor (bytes16 publicKey, bytes32[4] memory encAddress, bytes16 encSignature, address memberAppOwner)\n\t{\n\t\t_memberapp.publicKey \t\t= publicKey;\n\t\t_memberapp.encAddress \t\t= encAddress;\n\t\t_memberapp.encSignature \t= encSignature;\n\t\t_memberapp.memberAppOwner \t= memberAppOwner;\n\t\t_memberapp.status   \t\t= memberStatus.Active;\n\t\t_memberapp.superAppAddress\t= msg.sender;\n\t}\n\n\t/*************************\n\t Getters\n\t**************************/\n\tfunction getPublicKey() public view returns(bytes16)\n\t{\n\t\treturn _memberapp.publicKey;\n\t}\n\n\tfunction getEncAddress() public view returns(bytes32[32] memory)\n\t{\n\t\treturn _memberapp.encAddress;\n\t}\n\n\tfunction getEncSignature() public view returns(bytes16)\n\t{\n\t\treturn _memberapp.encSignature;\n\t}\n\n\tfunction getOwner() public view returns(address)\n\t{\n\t\treturn _memberapp.memberAppOwner;\n\t}\n\n\tfunction getStatus() public view returns(memberStatus)\n\t{\n\t\treturn _memberapp.status;\n\t}\n\n\tfunction getSuperApp() public view returns(address)\n\t{\n\t\treturn _memberapp.superAppAddress;\n\t}\n\n\t/*************************\n\t Setters\n\t**************************/\n\tfunction deactivate() public\n\t{\n\t\t//Only the superapp have power to deactivate the member app\n\t\trequire(msg.sender == getSuperApp(), \"Call the super app to deactivate this member app. If you are not the owner of this app you will not be able to do so\");\n\t\t_memberapp.status = memberStatus.Inactive;\n\t}\n\n\t/*************************\n\t Permissioning\n\t**************************/\n\t//Ugliest way to do so, but also the fast right now\n\t//Thats actually a big to do in this context, cause we need to think on a more effiecient way to do it\n\t//Here we are storing all the permissions every user gave to OTHER member apps to access data\n\t//It will get inefficient when put on production\n\tfunction givePermission(address app) public \n\t{\n\t\tusersPermissions[msg.sender][app] = true;\n\t}\n\n\tfunction revokePermission(address app) public\n\t{\n\t\tusersPermissions[msg.sender][app] = false;\n\t}\n\n\tfunction getPermission(address user, address app) public view returns (bool)\n\t{\n\t\treturn usersPermissions[user][app];\n\t}\n\t\n}",
  "sourcePath": "/home/flav/superapp/contracts/MemberApp.sol",
  "compiler": {
    "name": "solc",
    "version": "0.7.0+commit.9e61f92b.Emscripten.clang"
  },
  "schemaVersion": "3.2.3",
  "updatedAt": "2020-08-20T15:25:48.081Z",
  "devdoc": {
    "kind": "dev",
    "methods": {},
    "version": 1
  },
  "userdoc": {
    "kind": "user",
    "methods": {},
    "version": 1
  }
}