{
  "contractName": "MemberApp",
  "abi": [
    {
      "inputs": [
        {
          "internalType": "bytes16",
          "name": "publicKey",
          "type": "bytes16"
        },
        {
          "internalType": "bytes32[4]",
          "name": "encAddress",
          "type": "bytes32[4]"
        },
        {
          "internalType": "bytes16",
          "name": "encSignature",
          "type": "bytes16"
        },
        {
          "internalType": "address",
          "name": "memberAppOwner",
          "type": "address"
        }
      ],
      "stateMutability": "nonpayable",
      "type": "constructor"
    },
    {
      "inputs": [],
      "name": "getPublicKey",
      "outputs": [
        {
          "internalType": "bytes16",
          "name": "",
          "type": "bytes16"
        }
      ],
      "stateMutability": "view",
      "type": "function"
    },
    {
      "inputs": [],
      "name": "getEncAddress",
      "outputs": [
        {
          "internalType": "bytes32[32]",
          "name": "",
          "type": "bytes32[32]"
        }
      ],
      "stateMutability": "view",
      "type": "function"
    },
    {
      "inputs": [],
      "name": "getEncSignature",
      "outputs": [
        {
          "internalType": "bytes16",
          "name": "",
          "type": "bytes16"
        }
      ],
      "stateMutability": "view",
      "type": "function"
    },
    {
      "inputs": [],
      "name": "getOwner",
      "outputs": [
        {
          "internalType": "address",
          "name": "",
          "type": "address"
        }
      ],
      "stateMutability": "view",
      "type": "function"
    },
    {
      "inputs": [],
      "name": "getStatus",
      "outputs": [
        {
          "internalType": "enum memberStatus",
          "name": "",
          "type": "uint8"
        }
      ],
      "stateMutability": "view",
      "type": "function"
    },
    {
      "inputs": [],
      "name": "getSuperApp",
      "outputs": [
        {
          "internalType": "address",
          "name": "",
          "type": "address"
        }
      ],
      "stateMutability": "view",
      "type": "function"
    },
    {
      "inputs": [],
      "name": "deactivate",
      "outputs": [],
      "stateMutability": "nonpayable",
      "type": "function"
    },
    {
      "inputs": [
        {
          "internalType": "address",
          "name": "app",
          "type": "address"
        }
      ],
      "name": "givePermission",
      "outputs": [],
      "stateMutability": "nonpayable",
      "type": "function"
    },
    {
      "inputs": [
        {
          "internalType": "address",
          "name": "app",
          "type": "address"
        }
      ],
      "name": "revokePermission",
      "outputs": [],
      "stateMutability": "nonpayable",
      "type": "function"
    },
    {
      "inputs": [
        {
          "internalType": "address",
          "name": "user",
          "type": "address"
        },
        {
          "internalType": "address",
          "name": "app",
          "type": "address"
        }
      ],
      "name": "getPermission",
      "outputs": [
        {
          "internalType": "bool",
          "name": "",
          "type": "bool"
        }
      ],
      "stateMutability": "view",
      "type": "function"
    }
  ],
  "bytecode": "0x608060405234801561001057600080fd5b5060405161096c38038061096c833981810160405260e081101561003357600080fd5b81019080805190602001909291909190826080018051906020019092919080519060200190929190505050836000800160006101000a8154816fffffffffffffffffffffffffffffffff021916908360801c021790555082600060010190600461009e929190610184565b5081600060210160006101000a8154816fffffffffffffffffffffffffffffffff021916908360801c021790555080600060220160006101000a81548173ffffffffffffffffffffffffffffffffffffffff021916908373ffffffffffffffffffffffffffffffffffffffff1602179055506001600060220160146101000a81548160ff0219169083600281111561013257fe5b021790555033600060230160006101000a81548173ffffffffffffffffffffffffffffffffffffffff021916908373ffffffffffffffffffffffffffffffffffffffff160217905550505050506101e9565b82602081019282156101b3579160200282015b828111156101b2578251825591602001919060010190610197565b5b5090506101c091906101c4565b5090565b6101e691905b808211156101e25760008160009055506001016101ca565b5090565b90565b610774806101f86000396000f3fe608060405234801561001057600080fd5b506004361061009e5760003560e01c8063893d20e811610066578063893d20e8146101ab578063910185dd146101f5578063a3bf5b9a14610271578063f8bf6ced146102b5578063ffa34a56146102f95761009e565b8063106a9a5b146100a35780632e334452146100ed5780633d391f70146101315780634e69d5601461017557806351b42b00146101a1575b600080fd5b6100ab61033e565b604051808273ffffffffffffffffffffffffffffffffffffffff1673ffffffffffffffffffffffffffffffffffffffff16815260200191505060405180910390f35b6100f561036a565b60405180826fffffffffffffffffffffffffffffffff19166fffffffffffffffffffffffffffffffff1916815260200191505060405180910390f35b6101736004803603602081101561014757600080fd5b81019080803573ffffffffffffffffffffffffffffffffffffffff169060200190929190505050610383565b005b61017d61041b565b6040518082600281111561018d57fe5b60ff16815260200191505060405180910390f35b6101a9610434565b005b6101b36104e8565b604051808273ffffffffffffffffffffffffffffffffffffffff1673ffffffffffffffffffffffffffffffffffffffff16815260200191505060405180910390f35b6102576004803603604081101561020b57600080fd5b81019080803573ffffffffffffffffffffffffffffffffffffffff169060200190929190803573ffffffffffffffffffffffffffffffffffffffff169060200190929190505050610514565b604051808215151515815260200191505060405180910390f35b6102b36004803603602081101561028757600080fd5b81019080803573ffffffffffffffffffffffffffffffffffffffff1690602001909291905050506105a8565b005b6102bd610640565b60405180826fffffffffffffffffffffffffffffffff19166fffffffffffffffffffffffffffffffff1916815260200191505060405180910390f35b610301610659565b60405180826020800280838360005b8381101561032b578082015181840152602081019050610310565b5050505090500191505060405180910390f35b60008060230160009054906101000a900473ffffffffffffffffffffffffffffffffffffffff16905090565b60008060000160009054906101000a900460801b905090565b6001602460003373ffffffffffffffffffffffffffffffffffffffff1673ffffffffffffffffffffffffffffffffffffffff16815260200190815260200160002060008373ffffffffffffffffffffffffffffffffffffffff1673ffffffffffffffffffffffffffffffffffffffff16815260200190815260200160002060006101000a81548160ff02191690831515021790555050565b60008060220160149054906101000a900460ff16905090565b61043c61033e565b73ffffffffffffffffffffffffffffffffffffffff163373ffffffffffffffffffffffffffffffffffffffff16146104bf576040517f08c379a00000000000000000000000000000000000000000000000000000000081526004018080602001828103825260748152602001806106cb6074913960800191505060405180910390fd5b6002600060220160146101000a81548160ff021916908360028111156104e157fe5b0217905550565b60008060220160009054906101000a900473ffffffffffffffffffffffffffffffffffffffff16905090565b6000602460008473ffffffffffffffffffffffffffffffffffffffff1673ffffffffffffffffffffffffffffffffffffffff16815260200190815260200160002060008373ffffffffffffffffffffffffffffffffffffffff1673ffffffffffffffffffffffffffffffffffffffff16815260200190815260200160002060009054906101000a900460ff16905092915050565b6000602460003373ffffffffffffffffffffffffffffffffffffffff1673ffffffffffffffffffffffffffffffffffffffff16815260200190815260200160002060008373ffffffffffffffffffffffffffffffffffffffff1673ffffffffffffffffffffffffffffffffffffffff16815260200190815260200160002060006101000a81548160ff02191690831515021790555050565b60008060210160009054906101000a900460801b905090565b6106616106a7565b600060010160208060200260405190810160405280929190826020801561069d576020028201915b815481526020019060010190808311610689575b5050505050905090565b60405180610400016040528060209060208202803883398082019150509050509056fe43616c6c207468652073757065722061707020746f20646561637469766174652074686973206d656d626572206170702e20496620796f7520617265206e6f7420746865206f776e6572206f6620746869732061707020796f752077696c6c206e6f742062652061626c6520746f20646f20736fa2646970667358221220ed9847871a16c270078e0d451b559a370be702f362a82532c4cf7f0c35c513dc64736f6c63430006000033",
  "source": "// SPDX-License-Identifier: MIT\npragma solidity >=0.6.0 <=0.7.0;\n\n/*************************\n Global\n**************************/\nenum memberStatus { NotSet, Active, Inactive }\nstruct memberApp\n{\n\tbytes16 publicKey;\n\tbytes32 [32] encAddress; //Bytes32 is more efficient and cheap than trings because they dont carry the UTF-8 enconding\n\tbytes16 encSignature;\n\t// address memberAppAddress;\n\taddress memberAppOwner; //When creating a new member app, that's the caller address\n\tmemberStatus status;\n\taddress superAppAddress; //Superapp this member belongs to\n}\n\n\ncontract MemberApp\n{\n\tmemberApp private _memberapp;\n\n\t//Thats the list of users permissions\n\t//Please read the Permissions section above\n\t//Basically we map the address of an user to the address of an app and use a bool to set or unset the permissions\n\tmapping (address => mapping (address => bool)) usersPermissions;\n\n\t/*************************\n\t Constructor\n\t**************************/\n\t//OBS.: necessary to add the storage location for the bytes32 array\n\t//Used memory, cause it is volatile and cheap\n\tconstructor (bytes16 publicKey, bytes32[4] memory encAddress, bytes16 encSignature, address memberAppOwner) public\n\t{\n\t\t_memberapp.publicKey \t\t= publicKey;\n\t\t_memberapp.encAddress \t\t= encAddress;\n\t\t_memberapp.encSignature \t= encSignature;\n\t\t_memberapp.memberAppOwner \t= memberAppOwner;\n\t\t_memberapp.status   \t\t= memberStatus.Active;\n\t\t_memberapp.superAppAddress\t= msg.sender;\n\t}\n\n\t/*************************\n\t Getters\n\t**************************/\n\tfunction getPublicKey() public view returns(bytes16)\n\t{\n\t\treturn _memberapp.publicKey;\n\t}\n\n\tfunction getEncAddress() public view returns(bytes32[32] memory)\n\t{\n\t\treturn _memberapp.encAddress;\n\t}\n\n\tfunction getEncSignature() public view returns(bytes16)\n\t{\n\t\treturn _memberapp.encSignature;\n\t}\n\n\tfunction getOwner() public view returns(address)\n\t{\n\t\treturn _memberapp.memberAppOwner;\n\t}\n\n\tfunction getStatus() public view returns(memberStatus)\n\t{\n\t\treturn _memberapp.status;\n\t}\n\n\tfunction getSuperApp() public view returns(address)\n\t{\n\t\treturn _memberapp.superAppAddress;\n\t}\n\n\t/*************************\n\t Setters\n\t**************************/\n\tfunction deactivate() public\n\t{\n\t\t//Only the superapp have power to deactivate the member app\n\t\trequire(msg.sender == getSuperApp(), \"Call the super app to deactivate this member app. If you are not the owner of this app you will not be able to do so\");\n\t\t_memberapp.status = memberStatus.Inactive;\n\t}\n\n\t/*************************\n\t Permissioning\n\t**************************/\n\t//Ugliest way to do so, but also the fast right now\n\t//Thats actually a big to do in this context, cause we need to think on a more efficient way to do it\n\t//Here we are storing all the permissions every user gave to OTHER member apps to access data\n\t//It will get inefficient when put on production\n\tfunction givePermission(address app) public \n\t{\n\t\tusersPermissions[msg.sender][app] = true;\n\t}\n\n\tfunction revokePermission(address app) public\n\t{\n\t\tusersPermissions[msg.sender][app] = false;\n\t}\n\n\tfunction getPermission(address user, address app) public view returns(bool)\n\t{\n\t\treturn usersPermissions[user][app];\n\t}\n\n\t// function listPermissions(address user) public view returns (address[])\n\t// {\n\t\t\n\t// }\n\t\n}",
  "sourcePath": "/home/flav/superapp/contracts/MemberApp.sol",
  "compiler": {
    "name": "solc",
    "version": "0.6.0+commit.26b70077.Emscripten.clang"
  },
  "schemaVersion": "3.2.3",
  "updatedAt": "2020-08-24T11:13:53.514Z",
  "networkType": "ethereum",
  "devdoc": {
    "methods": {}
  },
  "userdoc": {
    "methods": {
      "constructor": "*********************** Constructor*************************",
      "deactivate()": {
        "notice": "*********************** Setters*************************"
      },
      "getPublicKey()": {
        "notice": "*********************** Getters*************************"
      },
      "givePermission(address)": {
        "notice": "*********************** Permissioning*************************"
      }
    }
  }
}