{
  "contractName": "SuperApp",
  "abi": [
    {
      "inputs": [
        {
          "internalType": "bytes16",
          "name": "publicKey",
          "type": "bytes16"
        },
        {
          "internalType": "bytes32[4]",
          "name": "encAddress",
          "type": "bytes32[4]"
        },
        {
          "internalType": "bytes16",
          "name": "encSignature",
          "type": "bytes16"
        }
      ],
      "name": "newMember",
      "outputs": [
        {
          "internalType": "address",
          "name": "",
          "type": "address"
        }
      ],
      "stateMutability": "nonpayable",
      "type": "function"
    },
    {
      "inputs": [
        {
          "internalType": "address",
          "name": "memberApp",
          "type": "address"
        }
      ],
      "name": "deleteMember",
      "outputs": [],
      "stateMutability": "nonpayable",
      "type": "function"
    },
    {
      "inputs": [
        {
          "internalType": "address",
          "name": "memberApp",
          "type": "address"
        }
      ],
      "name": "isMember",
      "outputs": [
        {
          "internalType": "enum memberStatus",
          "name": "",
          "type": "uint8"
        }
      ],
      "stateMutability": "view",
      "type": "function"
    }
  ],
  "bytecode": "0x608060405234801561001057600080fd5b50610f16806100206000396000f3fe608060405234801561001057600080fd5b50600436106100415760003560e01c806311ffb1d414610046578063a230c5241461008a578063f7781702146100ed575b600080fd5b6100886004803603602081101561005c57600080fd5b81019080803573ffffffffffffffffffffffffffffffffffffffff1690602001909291905050506101b6565b005b6100cc600480360360208110156100a057600080fd5b81019080803573ffffffffffffffffffffffffffffffffffffffff16906020019092919050505061039a565b604051808260028111156100dc57fe5b815260200191505060405180910390f35b61018a600480360360c081101561010357600080fd5b8101908080356fffffffffffffffffffffffffffffffff1916906020019092919080608001906004806020026040519081016040528092919082600460200280828437600081840152601f19601f820116905080830192505050505050919291929080356fffffffffffffffffffffffffffffffff191690602001909291905050506103ef565b604051808273ffffffffffffffffffffffffffffffffffffffff16815260200191505060405180910390f35b600160028111156101c357fe5b6101cc8261039a565b60028111156101d757fe5b1461022d576040517f08c379a0000000000000000000000000000000000000000000000000000000008152600401808060200182810382526055815260200180610e366055913960600191505060405180910390fd5b60008190508073ffffffffffffffffffffffffffffffffffffffff1663893d20e86040518163ffffffff1660e01b815260040160206040518083038186803b15801561027857600080fd5b505afa15801561028c573d6000803e3d6000fd5b505050506040513d60208110156102a257600080fd5b810190808051906020019092919050505073ffffffffffffffffffffffffffffffffffffffff163373ffffffffffffffffffffffffffffffffffffffff1614610336576040517f08c379a0000000000000000000000000000000000000000000000000000000008152600401808060200182810382526056815260200180610e8b6056913960600191505060405180910390fd5b8073ffffffffffffffffffffffffffffffffffffffff166351b42b006040518163ffffffff1660e01b8152600401600060405180830381600087803b15801561037e57600080fd5b505af1158015610392573d6000803e3d6000fd5b505050505050565b60008060008373ffffffffffffffffffffffffffffffffffffffff1673ffffffffffffffffffffffffffffffffffffffff16815260200190815260200160002060009054906101000a900460ff169050919050565b6000803390506000858585846040516104079061051b565b80856fffffffffffffffffffffffffffffffff1916815260200184600460200280838360005b8381101561044857808201518184015260208101905061042d565b50505050905001836fffffffffffffffffffffffffffffffff191681526020018273ffffffffffffffffffffffffffffffffffffffff168152602001945050505050604051809103906000f0801580156104a6573d6000803e3d6000fd5b509050600081905060016000808373ffffffffffffffffffffffffffffffffffffffff1673ffffffffffffffffffffffffffffffffffffffff16815260200190815260200160002060006101000a81548160ff0219169083600281111561050957fe5b02179055508093505050509392505050565b61090d806105298339019056fe608060405234801561001057600080fd5b5060405161090d38038061090d833981810160405260e081101561003357600080fd5b81019080805190602001909291909190826080018051906020019092919080519060200190929190505050836000800160006101000a8154816fffffffffffffffffffffffffffffffff021916908360801c021790555082600060010190600461009e929190610184565b5081600060210160006101000a8154816fffffffffffffffffffffffffffffffff021916908360801c021790555080600060220160006101000a81548173ffffffffffffffffffffffffffffffffffffffff021916908373ffffffffffffffffffffffffffffffffffffffff1602179055506001600060220160146101000a81548160ff0219169083600281111561013257fe5b021790555033600060230160006101000a81548173ffffffffffffffffffffffffffffffffffffffff021916908373ffffffffffffffffffffffffffffffffffffffff160217905550505050506101e1565b82602081019282156101b3579160200282015b828111156101b2578251825591602001919060010190610197565b5b5090506101c091906101c4565b5090565b5b808211156101dd5760008160009055506001016101c5565b5090565b61071d806101f06000396000f3fe608060405234801561001057600080fd5b506004361061009e5760003560e01c8063893d20e811610066578063893d20e81461017f578063910185dd146101b3578063a3bf5b9a1461022d578063f8bf6ced14610271578063ffa34a56146102a25761009e565b8063106a9a5b146100a35780632e334452146100d75780633d391f70146101085780634e69d5601461014c57806351b42b0014610175575b600080fd5b6100ab6102e7565b604051808273ffffffffffffffffffffffffffffffffffffffff16815260200191505060405180910390f35b6100df610313565b60405180826fffffffffffffffffffffffffffffffff1916815260200191505060405180910390f35b61014a6004803603602081101561011e57600080fd5b81019080803573ffffffffffffffffffffffffffffffffffffffff16906020019092919050505061032c565b005b6101546103c4565b6040518082600281111561016457fe5b815260200191505060405180910390f35b61017d6103dd565b005b610187610491565b604051808273ffffffffffffffffffffffffffffffffffffffff16815260200191505060405180910390f35b610215600480360360408110156101c957600080fd5b81019080803573ffffffffffffffffffffffffffffffffffffffff169060200190929190803573ffffffffffffffffffffffffffffffffffffffff1690602001909291905050506104bd565b60405180821515815260200191505060405180910390f35b61026f6004803603602081101561024357600080fd5b81019080803573ffffffffffffffffffffffffffffffffffffffff169060200190929190505050610551565b005b6102796105e9565b60405180826fffffffffffffffffffffffffffffffff1916815260200191505060405180910390f35b6102aa610602565b60405180826020800280838360005b838110156102d45780820151818401526020810190506102b9565b5050505090500191505060405180910390f35b60008060230160009054906101000a900473ffffffffffffffffffffffffffffffffffffffff16905090565b60008060000160009054906101000a900460801b905090565b6001602460003373ffffffffffffffffffffffffffffffffffffffff1673ffffffffffffffffffffffffffffffffffffffff16815260200190815260200160002060008373ffffffffffffffffffffffffffffffffffffffff1673ffffffffffffffffffffffffffffffffffffffff16815260200190815260200160002060006101000a81548160ff02191690831515021790555050565b60008060220160149054906101000a900460ff16905090565b6103e56102e7565b73ffffffffffffffffffffffffffffffffffffffff163373ffffffffffffffffffffffffffffffffffffffff1614610468576040517f08c379a00000000000000000000000000000000000000000000000000000000081526004018080602001828103825260748152602001806106746074913960800191505060405180910390fd5b6002600060220160146101000a81548160ff0219169083600281111561048a57fe5b0217905550565b60008060220160009054906101000a900473ffffffffffffffffffffffffffffffffffffffff16905090565b6000602460008473ffffffffffffffffffffffffffffffffffffffff1673ffffffffffffffffffffffffffffffffffffffff16815260200190815260200160002060008373ffffffffffffffffffffffffffffffffffffffff1673ffffffffffffffffffffffffffffffffffffffff16815260200190815260200160002060009054906101000a900460ff16905092915050565b6000602460003373ffffffffffffffffffffffffffffffffffffffff1673ffffffffffffffffffffffffffffffffffffffff16815260200190815260200160002060008373ffffffffffffffffffffffffffffffffffffffff1673ffffffffffffffffffffffffffffffffffffffff16815260200190815260200160002060006101000a81548160ff02191690831515021790555050565b60008060210160009054906101000a900460801b905090565b61060a610650565b6000600101602080602002604051908101604052809291908260208015610646576020028201915b815481526020019060010190808311610632575b5050505050905090565b60405180610400016040528060209060208202803683378082019150509050509056fe43616c6c207468652073757065722061707020746f20646561637469766174652074686973206d656d626572206170702e20496620796f7520617265206e6f7420746865206f776e6572206f6620746869732061707020796f752077696c6c206e6f742062652061626c6520746f20646f20736fa264697066735822122079b39644a777d46fc5aafbbd30458ea60f2a5bfeab28bca6f6a7c14d95e8986064736f6c6343000700003354686520636f6e747261637420646f6573206e6f7420657869737473206f7220697320696e6163746976652e20496e61637469766520636f6e7472616374732063616e6e6f7420626520726561637469766174652e596f7520617265206e6f7420746865206f776e6572206f662074686973206d656d626572206170702e204f6e6c7920746865206f776e65722063616e206465616374697661746520746865206d656d62657220617070a26469706673582212203c45dd97dc954816cebaf087ba5bb79b2690203432fd3be830e90f34aef7927364736f6c63430007000033",
  "immutableReferences": {},
  "source": "// SPDX-License-Identifier: MIT\npragma solidity ^0.7.0;\n\nimport \"./MemberApp.sol\";\n\ncontract SuperApp\n{\n\t/*************************\n\t\tList of member apps\n\t**************************/\n\t//We store only the address of the smart contract and map to its status\n\tmapping (address => memberStatus) private memberApps;\n\n\t/*************************\n\t\tConstructor\n\t**************************/\n\t// constructor ()\n\t// {\n\t// }\n\n\t/*************************\n\t\tRegister new Member\n\t**************************/\n\t//This function receives the information about a memberApp to be add\n\t//Creates a new smart contract and returns it`s address\n\t//The adress of the contract must be stored here, with its status\n\tfunction newMember (bytes16 publicKey, bytes32[4] memory encAddress, bytes16 encSignature) public returns (address)\n\t{\n\t\taddress owner = msg.sender;\n\t\tMemberApp _memberapp = new MemberApp(publicKey, encAddress, encSignature, owner);\n\n\t\t//Get the address of the contract created\n\t\taddress newContractAddress = address(_memberapp);\n\t\t//Insert address on the list\n\t\tmemberApps[newContractAddress] = memberStatus.Active;\n\n\t\treturn newContractAddress;\n\t}\n\n\n\t/*************************\n\t\tDelete Member\n\t**************************/\n\tfunction deleteMember (address memberApp) public\n\t{\n\t\t//The contract exists? Is it active?\n\t\trequire(isMember(memberApp) == memberStatus.Active, \"The contract does not exists or is inactive. Inactive contracts cannot be reactivate.\");\n\n\t\t//Is the message sender the owner of the contract?\n\t\t//If in the future we need to give permission to a regulator to deactivate contracts, that shall be done HERE\n\t\tMemberApp _memberapp = MemberApp(memberApp);\n\t\trequire(msg.sender == _memberapp.getOwner(), \"You are not the owner of this member app. Only the owner can deactivate the member app\");\n\n\t\t_memberapp.deactivate();\n\n\t}\n\n\t/*************************\n\t\tVerify membership\n\t**************************/\n\tfunction isMember (address memberApp) public view returns (memberStatus)\n\t{\n\t\treturn memberApps[memberApp];\n\t}\n\n}",
  "sourcePath": "/home/flav/superapp/contracts/SuperApp.sol",
  "compiler": {
    "name": "solc",
    "version": "0.7.0+commit.9e61f92b.Emscripten.clang"
  },
  "schemaVersion": "3.2.3",
  "updatedAt": "2020-08-20T15:25:48.090Z",
  "devdoc": {
    "kind": "dev",
    "methods": {},
    "version": 1
  },
  "userdoc": {
    "kind": "user",
    "methods": {},
    "version": 1
  }
}