{
  "contractName": "SuperApp",
  "abi": [
    {
      "inputs": [],
      "stateMutability": "nonpayable",
      "type": "constructor"
    },
    {
      "inputs": [
        {
          "internalType": "bytes16",
          "name": "publicKey",
          "type": "bytes16"
        },
        {
          "internalType": "bytes32[4]",
          "name": "encAddress",
          "type": "bytes32[4]"
        },
        {
          "internalType": "bytes16",
          "name": "encSignature",
          "type": "bytes16"
        }
      ],
      "name": "newMember",
      "outputs": [
        {
          "internalType": "address",
          "name": "",
          "type": "address"
        }
      ],
      "stateMutability": "nonpayable",
      "type": "function"
    },
    {
      "inputs": [
        {
          "internalType": "address",
          "name": "memberApp",
          "type": "address"
        }
      ],
      "name": "deleteMember",
      "outputs": [],
      "stateMutability": "nonpayable",
      "type": "function"
    },
    {
      "inputs": [
        {
          "internalType": "address",
          "name": "memberApp",
          "type": "address"
        }
      ],
      "name": "isMember",
      "outputs": [
        {
          "internalType": "enum memberStatus",
          "name": "",
          "type": "uint8"
        }
      ],
      "stateMutability": "view",
      "type": "function",
      "constant": true
    },
    {
      "inputs": [],
      "name": "listMembers",
      "outputs": [
        {
          "internalType": "address[]",
          "name": "",
          "type": "address[]"
        }
      ],
      "stateMutability": "view",
      "type": "function",
      "constant": true
    },
    {
      "inputs": [],
      "name": "listActiveMembers",
      "outputs": [
        {
          "internalType": "address[]",
          "name": "",
          "type": "address[]"
        }
      ],
      "stateMutability": "view",
      "type": "function",
      "constant": true
    }
  ],
  "bytecode": "0x608060405234801561001057600080fd5b506000600281905550611278806100286000396000f3fe608060405234801561001057600080fd5b50600436106100575760003560e01c806311ffb1d41461005c57806376195a20146100a0578063a230c524146100ff578063b6afd2ca14610165578063f7781702146101c4575b600080fd5b61009e6004803603602081101561007257600080fd5b81019080803573ffffffffffffffffffffffffffffffffffffffff1690602001909291905050506102a3565b005b6100a8610487565b6040518080602001828103825283818151815260200191508051906020019060200280838360005b838110156100eb5780820151818401526020810190506100d0565b505050509050019250505060405180910390f35b6101416004803603602081101561011557600080fd5b81019080803573ffffffffffffffffffffffffffffffffffffffff16906020019092919050505061059a565b6040518082600281111561015157fe5b60ff16815260200191505060405180910390f35b61016d6105ef565b6040518080602001828103825283818151815260200191508051906020019060200280838360005b838110156101b0578082015181840152602081019050610195565b505050509050019250505060405180910390f35b610261600480360360c08110156101da57600080fd5b8101908080356fffffffffffffffffffffffffffffffff1916906020019092919080608001906004806020026040519081016040528092919082600460200280828437600081840152601f19601f820116905080830192505050505050919291929080356fffffffffffffffffffffffffffffffff1916906020019092919050505061067d565b604051808273ffffffffffffffffffffffffffffffffffffffff1673ffffffffffffffffffffffffffffffffffffffff16815260200191505060405180910390f35b600160028111156102b057fe5b6102b98261059a565b60028111156102c457fe5b1461031a576040517f08c379a00000000000000000000000000000000000000000000000000000000081526004018080602001828103825260558152602001806111986055913960600191505060405180910390fd5b60008190508073ffffffffffffffffffffffffffffffffffffffff1663893d20e86040518163ffffffff1660e01b815260040160206040518083038186803b15801561036557600080fd5b505afa158015610379573d6000803e3d6000fd5b505050506040513d602081101561038f57600080fd5b810190808051906020019092919050505073ffffffffffffffffffffffffffffffffffffffff163373ffffffffffffffffffffffffffffffffffffffff1614610423576040517f08c379a00000000000000000000000000000000000000000000000000000000081526004018080602001828103825260568152602001806111ed6056913960600191505060405180910390fd5b8073ffffffffffffffffffffffffffffffffffffffff166351b42b006040518163ffffffff1660e01b8152600401600060405180830381600087803b15801561046b57600080fd5b505af115801561047f573d6000803e3d6000fd5b505050505050565b606080600080905060008090505b60025481101561059157600160028111156104ac57fe5b6104ec600183815481106104bc57fe5b9060005260206000200160009054906101000a900473ffffffffffffffffffffffffffffffffffffffff1661059a565b60028111156104f757fe5b1415610584576001818154811061050a57fe5b9060005260206000200160009054906101000a900473ffffffffffffffffffffffffffffffffffffffff1683838151811061054157fe5b602002602001019073ffffffffffffffffffffffffffffffffffffffff16908173ffffffffffffffffffffffffffffffffffffffff168152505081806001019250505b8080600101915050610495565b50819250505090565b60008060008373ffffffffffffffffffffffffffffffffffffffff1673ffffffffffffffffffffffffffffffffffffffff16815260200190815260200160002060009054906101000a900460ff169050919050565b6060600180548060200260200160405190810160405280929190818152602001828054801561067357602002820191906000526020600020905b8160009054906101000a900473ffffffffffffffffffffffffffffffffffffffff1673ffffffffffffffffffffffffffffffffffffffff1681526020019060010190808311610629575b5050505050905090565b6000803390506000858585846040516106959061081e565b80856fffffffffffffffffffffffffffffffff19166fffffffffffffffffffffffffffffffff1916815260200184600460200280838360005b838110156106e95780820151818401526020810190506106ce565b50505050905001836fffffffffffffffffffffffffffffffff19166fffffffffffffffffffffffffffffffff191681526020018273ffffffffffffffffffffffffffffffffffffffff1673ffffffffffffffffffffffffffffffffffffffff168152602001945050505050604051809103906000f080158015610770573d6000803e3d6000fd5b509050600081905060016000808373ffffffffffffffffffffffffffffffffffffffff1673ffffffffffffffffffffffffffffffffffffffff16815260200190815260200160002060006101000a81548160ff021916908360028111156107d357fe5b021790555060018081600181540180825580915050039060005260206000200160009054906101000a9050506002600081548092919060010191905055508093505050509392505050565b61096c8061082c8339019056fe608060405234801561001057600080fd5b5060405161096c38038061096c833981810160405260e081101561003357600080fd5b81019080805190602001909291909190826080018051906020019092919080519060200190929190505050836000800160006101000a8154816fffffffffffffffffffffffffffffffff021916908360801c021790555082600060010190600461009e929190610184565b5081600060210160006101000a8154816fffffffffffffffffffffffffffffffff021916908360801c021790555080600060220160006101000a81548173ffffffffffffffffffffffffffffffffffffffff021916908373ffffffffffffffffffffffffffffffffffffffff1602179055506001600060220160146101000a81548160ff0219169083600281111561013257fe5b021790555033600060230160006101000a81548173ffffffffffffffffffffffffffffffffffffffff021916908373ffffffffffffffffffffffffffffffffffffffff160217905550505050506101e9565b82602081019282156101b3579160200282015b828111156101b2578251825591602001919060010190610197565b5b5090506101c091906101c4565b5090565b6101e691905b808211156101e25760008160009055506001016101ca565b5090565b90565b610774806101f86000396000f3fe608060405234801561001057600080fd5b506004361061009e5760003560e01c8063893d20e811610066578063893d20e8146101ab578063910185dd146101f5578063a3bf5b9a14610271578063f8bf6ced146102b5578063ffa34a56146102f95761009e565b8063106a9a5b146100a35780632e334452146100ed5780633d391f70146101315780634e69d5601461017557806351b42b00146101a1575b600080fd5b6100ab61033e565b604051808273ffffffffffffffffffffffffffffffffffffffff1673ffffffffffffffffffffffffffffffffffffffff16815260200191505060405180910390f35b6100f561036a565b60405180826fffffffffffffffffffffffffffffffff19166fffffffffffffffffffffffffffffffff1916815260200191505060405180910390f35b6101736004803603602081101561014757600080fd5b81019080803573ffffffffffffffffffffffffffffffffffffffff169060200190929190505050610383565b005b61017d61041b565b6040518082600281111561018d57fe5b60ff16815260200191505060405180910390f35b6101a9610434565b005b6101b36104e8565b604051808273ffffffffffffffffffffffffffffffffffffffff1673ffffffffffffffffffffffffffffffffffffffff16815260200191505060405180910390f35b6102576004803603604081101561020b57600080fd5b81019080803573ffffffffffffffffffffffffffffffffffffffff169060200190929190803573ffffffffffffffffffffffffffffffffffffffff169060200190929190505050610514565b604051808215151515815260200191505060405180910390f35b6102b36004803603602081101561028757600080fd5b81019080803573ffffffffffffffffffffffffffffffffffffffff1690602001909291905050506105a8565b005b6102bd610640565b60405180826fffffffffffffffffffffffffffffffff19166fffffffffffffffffffffffffffffffff1916815260200191505060405180910390f35b610301610659565b60405180826020800280838360005b8381101561032b578082015181840152602081019050610310565b5050505090500191505060405180910390f35b60008060230160009054906101000a900473ffffffffffffffffffffffffffffffffffffffff16905090565b60008060000160009054906101000a900460801b905090565b6001602460003373ffffffffffffffffffffffffffffffffffffffff1673ffffffffffffffffffffffffffffffffffffffff16815260200190815260200160002060008373ffffffffffffffffffffffffffffffffffffffff1673ffffffffffffffffffffffffffffffffffffffff16815260200190815260200160002060006101000a81548160ff02191690831515021790555050565b60008060220160149054906101000a900460ff16905090565b61043c61033e565b73ffffffffffffffffffffffffffffffffffffffff163373ffffffffffffffffffffffffffffffffffffffff16146104bf576040517f08c379a00000000000000000000000000000000000000000000000000000000081526004018080602001828103825260748152602001806106cb6074913960800191505060405180910390fd5b6002600060220160146101000a81548160ff021916908360028111156104e157fe5b0217905550565b60008060220160009054906101000a900473ffffffffffffffffffffffffffffffffffffffff16905090565b6000602460008473ffffffffffffffffffffffffffffffffffffffff1673ffffffffffffffffffffffffffffffffffffffff16815260200190815260200160002060008373ffffffffffffffffffffffffffffffffffffffff1673ffffffffffffffffffffffffffffffffffffffff16815260200190815260200160002060009054906101000a900460ff16905092915050565b6000602460003373ffffffffffffffffffffffffffffffffffffffff1673ffffffffffffffffffffffffffffffffffffffff16815260200190815260200160002060008373ffffffffffffffffffffffffffffffffffffffff1673ffffffffffffffffffffffffffffffffffffffff16815260200190815260200160002060006101000a81548160ff02191690831515021790555050565b60008060210160009054906101000a900460801b905090565b6106616106a7565b600060010160208060200260405190810160405280929190826020801561069d576020028201915b815481526020019060010190808311610689575b5050505050905090565b60405180610400016040528060209060208202803883398082019150509050509056fe43616c6c207468652073757065722061707020746f20646561637469766174652074686973206d656d626572206170702e20496620796f7520617265206e6f7420746865206f776e6572206f6620746869732061707020796f752077696c6c206e6f742062652061626c6520746f20646f20736fa2646970667358221220ed9847871a16c270078e0d451b559a370be702f362a82532c4cf7f0c35c513dc64736f6c6343000600003354686520636f6e747261637420646f6573206e6f7420657869737473206f7220697320696e6163746976652e20496e61637469766520636f6e7472616374732063616e6e6f7420626520726561637469766174652e596f7520617265206e6f7420746865206f776e6572206f662074686973206d656d626572206170702e204f6e6c7920746865206f776e65722063616e206465616374697661746520746865206d656d62657220617070a2646970667358221220416f6965102939c101e3af2b620aa6304efc41db8f4446e433d4d00adaebdfc464736f6c63430006000033",
  "source": "// SPDX-License-Identifier: MIT\npragma solidity >=0.6.0 <=0.7.0;\n\nimport \"./MemberApp.sol\";\n\ncontract SuperApp\n{\n\t/*************************\n\t\tList of member apps\n\t**************************/\n\t//We store only the address of the smart contract and map to its status\n\tmapping (address => memberStatus) private memberApps;\n\taddress[] internal memberAddress;\n\tuint nMembers;\n\n\t/*************************\n\t\tConstructor\n\t**************************/\n\tconstructor () public\n\t{\n\t\tnMembers = 0;\n\t}\n\n\t/*************************\n\t\tRegister new Member\n\t**************************/\n\t//This function receives the information about a memberApp to be add\n\t//Creates a new smart contract and returns it`s address\n\t//The adress of the contract must be stored here, with its status\n\tfunction newMember (bytes16 publicKey, bytes32[4] memory encAddress, bytes16 encSignature) public returns (address)\n\t{\n\t\taddress owner = msg.sender;\n\t\tMemberApp _memberapp = new MemberApp(publicKey, encAddress, encSignature, owner);\n\n\t\t//Get the address of the contract created\n\t\taddress newContractAddress = address(_memberapp);\n\t\t//Insert address on the list\n\t\tmemberApps[newContractAddress] = memberStatus.Active;\n\n\t\tmemberAddress.push();\n\t\tnMembers++;\n\n\t\treturn newContractAddress;\n\t}\n\n\n\t/*************************\n\t\tDelete Member\n\t**************************/\n\tfunction deleteMember (address memberApp) public\n\t{\n\t\t//The contract exists? Is it active?\n\t\trequire(isMember(memberApp) == memberStatus.Active, \"The contract does not exists or is inactive. Inactive contracts cannot be reactivate.\");\n\n\t\t//Is the message sender the owner of the contract?\n\t\t//If in the future we need to give permission to a regulator to deactivate contracts, that shall be done HERE\n\t\tMemberApp _memberapp = MemberApp(memberApp);\n\t\trequire(msg.sender == _memberapp.getOwner(), \"You are not the owner of this member app. Only the owner can deactivate the member app\");\n\n\t\t_memberapp.deactivate();\n\n\t}\n\n\t/*************************\n\t\tVerify membership\n\t**************************/\n\tfunction isMember (address memberApp) public view returns (memberStatus)\n\t{\n\t\treturn memberApps[memberApp];\n\t}\n\n\t/*************************\n\t\tReturn list of memberapps\n\t**************************/\n\tfunction listMembers() public view returns (address[] memory)\n\t{\n\t\treturn memberAddress;\n\t}\n\n\t/*************************\n\t\tReturn list of active memberapps\n\t**************************/\n\t//Dirty and ugly solution, but it works \n\tfunction listActiveMembers() public view returns (address[] memory)\n\t{\n\t\taddress[] memory activeMembers;\n\t\tuint y=0;\n\t\tfor (uint i=0; i<nMembers; i++)\n\t\t{\n\t\t\tif (isMember(memberAddress[i]) == memberStatus.Active)\n\t\t\t{\n\t\t\t\tactiveMembers[y]=memberAddress[i];\n\t\t\t\ty++;\n\t\t\t}\n\n\t\t}\n\n\t\treturn activeMembers;\n\t}\n\n}",
  "sourcePath": "/home/flav/superapp/contracts/SuperApp.sol",
  "compiler": {
    "name": "solc",
    "version": "0.6.0+commit.26b70077.Emscripten.clang"
  },
  "schemaVersion": "3.2.3",
  "updatedAt": "2020-08-24T11:13:53.519Z",
  "networkType": "ethereum",
  "devdoc": {
    "methods": {}
  },
  "userdoc": {
    "methods": {
      "constructor": "*********************** Constructor*************************",
      "deleteMember(address)": {
        "notice": "*********************** Delete Member*************************"
      },
      "isMember(address)": {
        "notice": "*********************** Verify membership*************************"
      },
      "listActiveMembers()": {
        "notice": "*********************** Return list of active memberapps*************************"
      },
      "listMembers()": {
        "notice": "*********************** Return list of memberapps*************************"
      },
      "newMember(bytes16,bytes32[4],bytes16)": {
        "notice": "*********************** Register new Member*************************"
      }
    }
  }
}