{
  "contractName": "SuperApp",
  "abi": [
    {
      "inputs": [],
      "stateMutability": "nonpayable",
      "type": "constructor"
    },
    {
      "inputs": [
        {
          "internalType": "bytes16",
          "name": "publicKey",
          "type": "bytes16"
        },
        {
          "internalType": "bytes32[4]",
          "name": "encAddress",
          "type": "bytes32[4]"
        },
        {
          "internalType": "bytes16",
          "name": "encSignature",
          "type": "bytes16"
        }
      ],
      "name": "newMember",
      "outputs": [
        {
          "internalType": "address",
          "name": "",
          "type": "address"
        }
      ],
      "stateMutability": "nonpayable",
      "type": "function"
    },
    {
      "inputs": [
        {
          "internalType": "address",
          "name": "memberApp",
          "type": "address"
        }
      ],
      "name": "isMember",
      "outputs": [
        {
          "internalType": "enum memberStatus",
          "name": "",
          "type": "uint8"
        }
      ],
      "stateMutability": "nonpayable",
      "type": "function"
    }
  ],
  "bytecode": "0x608060405234801561001057600080fd5b506104ee806100206000396000f3fe608060405234801561001057600080fd5b50600436106100365760003560e01c8063a230c5241461003b578063f77817021461009e575b600080fd5b61007d6004803603602081101561005157600080fd5b81019080803573ffffffffffffffffffffffffffffffffffffffff169060200190929190505050610167565b6040518082600281111561008d57fe5b815260200191505060405180910390f35b61013b600480360360c08110156100b457600080fd5b8101908080356fffffffffffffffffffffffffffffffff1916906020019092919080608001906004806020026040519081016040528092919082600460200280828437600081840152601f19601f820116905080830192505050505050919291929080356fffffffffffffffffffffffffffffffff191690602001909291905050506101bc565b604051808273ffffffffffffffffffffffffffffffffffffffff16815260200191505060405180910390f35b60008060008373ffffffffffffffffffffffffffffffffffffffff1673ffffffffffffffffffffffffffffffffffffffff16815260200190815260200160002060009054906101000a900460ff169050919050565b6000803390506000858585846040516101d4906102e8565b80856fffffffffffffffffffffffffffffffff1916815260200184600460200280838360005b838110156102155780820151818401526020810190506101fa565b50505050905001836fffffffffffffffffffffffffffffffff191681526020018273ffffffffffffffffffffffffffffffffffffffff168152602001945050505050604051809103906000f080158015610273573d6000803e3d6000fd5b509050600081905060016000808373ffffffffffffffffffffffffffffffffffffffff1673ffffffffffffffffffffffffffffffffffffffff16815260200190815260200160002060006101000a81548160ff021916908360028111156102d657fe5b02179055508093505050509392505050565b6101c3806102f68339019056fe608060405234801561001057600080fd5b506040516101c33803806101c3833981810160405260e081101561003357600080fd5b81019080805190602001909291909190826080018051906020019092919080519060200190929190505050836000800160006101000a8154816fffffffffffffffffffffffffffffffff021916908360801c021790555082600060010190600461009e929190610119565b5081600060210160006101000a8154816fffffffffffffffffffffffffffffffff021916908360801c021790555080600060230160006101000a81548173ffffffffffffffffffffffffffffffffffffffff021916908373ffffffffffffffffffffffffffffffffffffffff16021790555050505050610176565b8260208101928215610148579160200282015b8281111561014757825182559160200191906001019061012c565b5b5090506101559190610159565b5090565b5b8082111561017257600081600090555060010161015a565b5090565b603f806101846000396000f3fe6080604052600080fdfea2646970667358221220f6af4bd75d4507277c970c84fa57002d2ab64ade35c5c456a61137e4e9a9599b64736f6c63430007000033a2646970667358221220587147756353ef1f4188bcdd919d5e12a48fac4f47581afc8193c86446b62d9964736f6c63430007000033",
  "immutableReferences": {},
  "source": "// SPDX-License-Identifier: MIT\npragma solidity ^0.7.0;\n\nimport \"./MemberApp.sol\";\n\ncontract SuperApp\n{\n\t/*************************\n\t\tList of member apps\n\t**************************/\n\t//We store only the address of the smart contract and map to its status\n\tmapping (address => memberStatus) private memberApps;\n\n\t/*************************\n\t\tStructs and other variables\n\t**************************/\n\n\t/*************************\n\t\tConstructor\n\t**************************/\n\tconstructor ()\n\t{\n\t}\n\n\t/*************************\n\t\tRegister new Member\n\t**************************/\n\t//This function receives the information about a memberApp to be add\n\t//Creates a new smart contract and returns it`s address\n\t//The adress of the contract must be stored here, with its status\n\tfunction newMember (bytes16 publicKey, bytes32[4] memory encAddress, bytes16 encSignature) public returns (address)\n\t{\n\t\taddress owner = msg.sender;\n\t\tMemberApp _memberapp = new MemberApp(publicKey, encAddress, encSignature, owner);\n\n\t\t//Get the address of the contract created\n\t\taddress newContractAddress = address(_memberapp);\n\t\t//Insert address on the list\n\t\tmemberApps[newContractAddress] = memberStatus.Active;\n\n\t\treturn newContractAddress;\n\t}\n\n\n\t/*************************\n\t\tDelete Member\n\t**************************/\n\t// function deleteMember () public returns (bool)\n\t// {\n\n\t// }\n\n\t/*************************\n\t\tVerify membership\n\t**************************/\n\tfunction isMember (address memberApp) public returns (memberStatus)\n\t{\n\t\treturn memberApps[memberApp];\n\t}\n\n}",
  "sourcePath": "/home/flav/superapp/contracts/SuperApp.sol",
  "compiler": {
    "name": "solc",
    "version": "0.7.0+commit.9e61f92b.Emscripten.clang"
  },
  "schemaVersion": "3.2.3",
  "updatedAt": "2020-08-20T13:24:40.298Z",
  "devdoc": {
    "kind": "dev",
    "methods": {},
    "version": 1
  },
  "userdoc": {
    "kind": "user",
    "methods": {},
    "version": 1
  }
}